{
    "contractName": "Battleship",
    "abi": [
        {
            "anonymous": false,
            "inputs": [
                {
                    "indexed": false,
                    "internalType": "address",
                    "name": "who",
                    "type": "address"
                }
            ],
            "name": "OpponentLeft",
            "type": "event"
        },
        {
            "inputs": [
                {
                    "internalType": "bytes",
                    "name": "opening_nonce",
                    "type": "bytes"
                },
                {
                    "internalType": "bytes32[]",
                    "name": "proof",
                    "type": "bytes32[]"
                },
                {
                    "internalType": "uint256",
                    "name": "guess_leaf_index",
                    "type": "uint256"
                },
                {
                    "internalType": "address",
                    "name": "owner",
                    "type": "address"
                }
            ],
            "name": "accuse_cheating",
            "outputs": [
                {
                    "internalType": "bool",
                    "name": "result",
                    "type": "bool"
                }
            ],
            "stateMutability": "nonpayable",
            "type": "function"
        },
        {
            "inputs": [
                {
                    "internalType": "bytes",
                    "name": "opening_nonce",
                    "type": "bytes"
                },
                {
                    "internalType": "bytes32[]",
                    "name": "proof",
                    "type": "bytes32[]"
                },
                {
                    "internalType": "uint256",
                    "name": "guess_leaf_index",
                    "type": "uint256"
                },
                {
                    "internalType": "address",
                    "name": "owner",
                    "type": "address"
                }
            ],
            "name": "check_one_ship",
            "outputs": [
                {
                    "internalType": "bool",
                    "name": "result",
                    "type": "bool"
                }
            ],
            "stateMutability": "nonpayable",
            "type": "function"
        },
        {
            "inputs": [
                {
                    "internalType": "address",
                    "name": "opponent",
                    "type": "address"
                }
            ],
            "name": "claim_opponent_left",
            "outputs": [],
            "stateMutability": "nonpayable",
            "type": "function"
        },
        {
            "inputs": [
                {
                    "internalType": "address",
                    "name": "opponent",
                    "type": "address"
                }
            ],
            "name": "claim_timeout_winnings",
            "outputs": [],
            "stateMutability": "nonpayable",
            "type": "function"
        },
        {
            "inputs": [],
            "name": "claim_win",
            "outputs": [],
            "stateMutability": "nonpayable",
            "type": "function"
        },
        {
            "inputs": [
                {
                    "internalType": "address payable",
                    "name": "opponent",
                    "type": "address"
                }
            ],
            "name": "forfeit",
            "outputs": [],
            "stateMutability": "nonpayable",
            "type": "function"
        },
        {
            "inputs": [],
            "name": "get_checked_ship",
            "outputs": [
                {
                    "internalType": "bool",
                    "name": "",
                    "type": "bool"
                }
            ],
            "stateMutability": "view",
            "type": "function"
        },
        {
            "inputs": [],
            "name": "get_player_bid",
            "outputs": [
                {
                    "internalType": "uint256",
                    "name": "",
                    "type": "uint256"
                }
            ],
            "stateMutability": "view",
            "type": "function"
        },
        {
            "inputs": [],
            "name": "get_players",
            "outputs": [
                {
                    "internalType": "address",
                    "name": "",
                    "type": "address"
                },
                {
                    "internalType": "address",
                    "name": "",
                    "type": "address"
                }
            ],
            "stateMutability": "view",
            "type": "function"
        },
        {
            "inputs": [],
            "name": "get_ships_count",
            "outputs": [
                {
                    "internalType": "uint256",
                    "name": "",
                    "type": "uint256"
                }
            ],
            "stateMutability": "view",
            "type": "function"
        },
        {
            "inputs": [
                {
                    "internalType": "address payable",
                    "name": "opponent",
                    "type": "address"
                }
            ],
            "name": "handle_timeout",
            "outputs": [],
            "stateMutability": "nonpayable",
            "type": "function"
        },
        {
            "inputs": [],
            "name": "is_game_over",
            "outputs": [
                {
                    "internalType": "bool",
                    "name": "",
                    "type": "bool"
                }
            ],
            "stateMutability": "view",
            "type": "function"
        },
        {
            "inputs": [
                {
                    "internalType": "bytes32",
                    "name": "a",
                    "type": "bytes32"
                },
                {
                    "internalType": "bytes32",
                    "name": "b",
                    "type": "bytes32"
                }
            ],
            "name": "merge_bytes32",
            "outputs": [
                {
                    "internalType": "bytes",
                    "name": "",
                    "type": "bytes"
                }
            ],
            "stateMutability": "pure",
            "type": "function"
        },
        {
            "inputs": [],
            "name": "store_bid",
            "outputs": [],
            "stateMutability": "payable",
            "type": "function"
        },
        {
            "inputs": [
                {
                    "internalType": "bytes32",
                    "name": "merkle_root",
                    "type": "bytes32"
                }
            ],
            "name": "store_board_commitment",
            "outputs": [],
            "stateMutability": "nonpayable",
            "type": "function"
        },
        {
            "inputs": [
                {
                    "internalType": "bytes",
                    "name": "opening_nonce",
                    "type": "bytes"
                },
                {
                    "internalType": "bytes32[]",
                    "name": "proof",
                    "type": "bytes32[]"
                },
                {
                    "internalType": "uint256",
                    "name": "guess_leaf_index",
                    "type": "uint256"
                },
                {
                    "internalType": "bytes32",
                    "name": "commit",
                    "type": "bytes32"
                }
            ],
            "name": "verify_opening",
            "outputs": [
                {
                    "internalType": "bool",
                    "name": "result",
                    "type": "bool"
                }
            ],
            "stateMutability": "view",
            "type": "function"
        }
    ],
    "bytecode": "6080604052600080546001600160a01b0319169055600180546001600160a81b031916905534801561003057600080fd5b50611317806100406000396000f3fe6080604052600436106100f35760003560e01c8063a2c66df11161008a578063deffa96711610059578063deffa9671461066b578063e7e4552c1461069e578063f33bd194146106e2578063f66e88b1146106f7576100f3565b8063a2c66df1146104b8578063a88f4db5146104eb578063b62829b914610515578063d55c91ec14610656576100f3565b806350a04b45116100c657806350a04b45146101e35780636cf399fa1461032f5780637601b31914610470578063a1fe395314610485576100f3565b80630118046e146100f85780630868d16b1461011f57806345f203b1146101365780634ea0e9d41461013e575b600080fd5b34801561010457600080fd5b5061010d61072a565b60408051918252519081900360200190f35b34801561012b57600080fd5b5061013461073d565b005b61013461086e565b34801561014a57600080fd5b5061016e6004803603604081101561016157600080fd5b5080359060200135610a53565b6040805160208082528351818301528351919283929083019185019080838360005b838110156101a8578181015183820152602001610190565b50505050905090810190601f1680156101d55780820380516001836020036101000a031916815260200191505b509250505060405180910390f35b3480156101ef57600080fd5b5061031b6004803603608081101561020657600080fd5b810190602081018135600160201b81111561022057600080fd5b82018360208201111561023257600080fd5b803590602001918460018302840111600160201b8311171561025357600080fd5b91908080601f0160208091040260200160405190810160405280939291908181526020018383808284376000920191909152509295949360208101935035915050600160201b8111156102a557600080fd5b8201836020820111156102b757600080fd5b803590602001918460208302840111600160201b831117156102d857600080fd5b9190808060200260200160405190810160405280939291908181526020018383602002808284376000920191909152509295505082359350505060200135610a83565b604080519115158252519081900360200190f35b34801561033b57600080fd5b5061031b6004803603608081101561035257600080fd5b810190602081018135600160201b81111561036c57600080fd5b82018360208201111561037e57600080fd5b803590602001918460018302840111600160201b8311171561039f57600080fd5b91908080601f0160208091040260200160405190810160405280939291908181526020018383808284376000920191909152509295949360208101935035915050600160201b8111156103f157600080fd5b82018360208201111561040357600080fd5b803590602001918460208302840111600160201b8311171561042457600080fd5b91908080602002602001604051908101604052809392919081815260200183836020028082843760009201919091525092955050823593505050602001356001600160a01b0316610b71565b34801561047c57600080fd5b5061010d610c9a565b34801561049157600080fd5b50610134600480360360208110156104a857600080fd5b50356001600160a01b0316610cad565b3480156104c457600080fd5b50610134600480360360208110156104db57600080fd5b50356001600160a01b0316610db8565b3480156104f757600080fd5b506101346004803603602081101561050e57600080fd5b5035610e3d565b34801561052157600080fd5b5061031b6004803603608081101561053857600080fd5b810190602081018135600160201b81111561055257600080fd5b82018360208201111561056457600080fd5b803590602001918460018302840111600160201b8311171561058557600080fd5b91908080601f0160208091040260200160405190810160405280939291908181526020018383808284376000920191909152509295949360208101935035915050600160201b8111156105d757600080fd5b8201836020820111156105e957600080fd5b803590602001918460208302840111600160201b8311171561060a57600080fd5b91908080602002602001604051908101604052809392919081815260200183836020028082843760009201919091525092955050823593505050602001356001600160a01b0316610eb6565b34801561066257600080fd5b5061031b610f50565b34801561067757600080fd5b506101346004803603602081101561068e57600080fd5b50356001600160a01b0316610f59565b3480156106aa57600080fd5b506106b361107b565b60405180836001600160a01b03168152602001826001600160a01b031681526020019250505060405180910390f35b3480156106ee57600080fd5b5061031b611092565b34801561070357600080fd5b506101346004803603602081101561071a57600080fd5b50356001600160a01b03166110a2565b3360009081526005602052604090205490565b33600090815260086020526040902054600a14801561076b575033600090815260076020526040902054600a145b6107bc576040805162461bcd60e51b815260206004820181905260248201527f6e6f7420656e6f756768742068697473206f7220706c61636564207368697073604482015290519081900360640190fd5b604051600090339047908381818185875af1925050503d80600081146107fe576040519150601f19603f3d011682016040523d82523d6000602084013e610803565b606091505b5050905080610850576040805162461bcd60e51b81526020600482015260146024820152732330b4b632b2103a379039b2b7321022ba3432b960611b604482015290519081900360640190fd5b6001805460ff60a01b1916600160a01b17905561086b611183565b50565b6000546001600160a01b03166108ad57600080546001600160a01b03191633178082556001600160a01b031681526005602052604090203490556108dc565b600180546001600160a01b0319163317908190556001600160a01b031660009081526005602052604090203490555b6000546001600160a01b03161580159061090057506001546001600160a01b031615155b15610a5157600080546001600160a01b03908116825260056020526040808320546001549092168352909120541015610980576040805162461bcd60e51b815260206004820152601e60248201527f506c61796572312062696473206d6f7265207468616e20506c61796572320000604482015290519081900360640190fd5b600080546001600160a01b039081168252600560205260408083205460015490921683529091205403801561086b576001546040516000916001600160a01b03169047908381818185875af1925050503d80600081146109fc576040519150601f19603f3d011682016040523d82523d6000602084013e610a01565b606091505b5050905080610a4e576040805162461bcd60e51b81526020600482015260146024820152732330b4b632b2103a379039b2b7321022ba3432b960611b604482015290519081900360640190fd5b50505b565b60408051818152606081810183529182919060208201818036833750505060208101949094525050604082015290565b835160208501206000908382805b8751821015610b615760008160020a8481610aa857fe5b049050600180821690600090600285900a6023810181610ac457fe5b04039050600060026001840106838503019050848060010195505081811115610af05750505050610a91565b60028306610b2a57610b15888d8881518110610b0857fe5b6020026020010151610a53565b80516020909101209750600190950194610b58565b610b478c8781518110610b3957fe5b602002602001015189610a53565b805160209091012097506001909501945b50505050610a91565b505050821490505b949350505050565b600080546001600160a01b0316331480610b9557506001546001600160a01b031633145b8015610bc557506000546001600160a01b0383811691161480610bc557506001546001600160a01b038381169116145b610bce57600080fd5b6001600160a01b038216600090815260066020526040902054610bf690869086908690610a83565b905080610b6957604051600090339047908381818185875af1925050503d8060008114610c3f576040519150601f19603f3d011682016040523d82523d6000602084013e610c44565b606091505b5050905080610c91576040805162461bcd60e51b81526020600482015260146024820152732330b4b632b2103a379039b2b7321022ba3432b960611b604482015290519081900360640190fd5b50949350505050565b3360009081526008602052604090205490565b6001600160a01b03811660009081526009602052604090205460ff16158015610ce657503360009081526009602052604090205460ff16155b8015610d1657506000546001600160a01b0382811691161480610d1657506001546001600160a01b038281169116145b610d515760405162461bcd60e51b815260040180806020018281038252603a815260200180611285603a913960400191505060405180910390fd5b426002819055603c016003556001600160a01b038116600081815260096020908152604091829020805460ff19166001179055815192835290517f289977c9d690ef7d3678a642a80c1b9e0a9c0b391bdf7061c4a3adf8da5a37e19281900390910190a150565b6003544211158015610de857506000546001600160a01b0316331480610de857506001546001600160a01b031633145b610e235760405162461bcd60e51b81526004018080602001828103825260238152602001806112bf6023913960400191505060405180910390fd5b50336000908152600960205260409020805460ff19169055565b6000546001600160a01b0316331480610e6057506001546001600160a01b031633145b610ea4576040805162461bcd60e51b815260206004820152601060248201526f6e6f742076616c69642061647265737360801b604482015290519081900360640190fd5b33600090815260066020526040902055565b6001600160a01b038116600090815260066020526040812054610ede90869086908690610a83565b6004805460ff1916911515919091179055336001600160a01b038316148015610f045750805b15610f245733600090815260086020526040902080546001019055610f41565b8015610f4157336000908152600760205260409020805460010190555b5060045460ff16949350505050565b60045460ff1690565b6001600160a01b03811660009081526009602052604090205460ff168015610f8357506003544210155b610fcc576040805162461bcd60e51b81526020600482015260156024820152741d1a5b595c881a185cc81b9bdd081c9d5b881bdd5d605a1b604482015290519081900360640190fd5b604051600090339047908381818185875af1925050503d806000811461100e576040519150601f19603f3d011682016040523d82523d6000602084013e611013565b606091505b5050905080611060576040805162461bcd60e51b81526020600482015260146024820152732330b4b632b2103a379039b2b7321022ba3432b960611b604482015290519081900360640190fd5b6001805460ff60a01b1916600160a01b179055610a4e611183565b6000546001546001600160a01b0391821691169091565b600154600160a01b900460ff1690565b6000546001600160a01b03163314806110c557506001546001600160a01b031633145b80156110f557506000546001600160a01b03828116911614806110f557506001546001600160a01b038281169116145b611138576040805162461bcd60e51b815260206004820152600f60248201526e696e76616c6964206164647265737360881b604482015290519081900360640190fd5b6040516000906001600160a01b0383169047908381818185875af1925050503d806000811461100e576040519150601f19603f3d011682016040523d82523d6000602084013e611013565b600154600160a01b900460ff166111e1576040805162461bcd60e51b815260206004820152601860248201527f67616d65206973207374696c6c20696e2073657373696f6e0000000000000000604482015290519081900360640190fd5b600080546001600160a01b0390811682526005602090815260408084208490556001805484168552818520859055845484168552600783528185208590558054841685528185208590558454841685526008835281852085905580548416855281852085905584548416855260069092528084208490558154909216835290822082905581546001600160a01b03191690915580546001600160a81b031916905556fe696e76616c69642061646472657373206f7220796f75206861766520746f2068616e646c6520612074696d656f75742061636375736174696f6e74696d65206861732072756e206f7574206f7220696e76616c69642061646472657373a2646970667358221220ed447b3bff4d73f6e92326dd9055d7227c0f2d9f8a056772531b7e842fc0c87664736f6c634300060c0033",
    "sourcePath": "/Users/pc/Documents/FIIT/DMBLOCK/zadanie_2/Zadanie 2/kody/contracts/contract_starter.sol",
    "compiler": {
        "name": "solc",
        "version": "0.6.12+commit.27d51765"
    },
    "functionHashes": {
        "accuse_cheating(bytes,bytes32[],uint256,address)": "6cf399fa",
        "check_one_ship(bytes,bytes32[],uint256,address)": "b62829b9",
        "claim_opponent_left(address)": "a1fe3953",
        "claim_timeout_winnings(address)": "deffa967",
        "claim_win()": "0868d16b",
        "forfeit(address)": "f66e88b1",
        "get_checked_ship()": "d55c91ec",
        "get_player_bid()": "0118046e",
        "get_players()": "e7e4552c",
        "get_ships_count()": "7601b319",
        "handle_timeout(address)": "a2c66df1",
        "is_game_over()": "f33bd194",
        "merge_bytes32(bytes32,bytes32)": "4ea0e9d4",
        "store_bid()": "45f203b1",
        "store_board_commitment(bytes32)": "a88f4db5",
        "verify_opening(bytes,bytes32[],uint256,bytes32)": "50a04b45"
    },
    "gasEstimates": {
        "creation": {
            "codeDepositCost": "977400",
            "executionCost": "42674",
            "totalCost": "1020074"
        },
        "external": {
            "accuse_cheating(bytes,bytes32[],uint256,address)": "infinite",
            "check_one_ship(bytes,bytes32[],uint256,address)": "infinite",
            "claim_opponent_left(address)": "infinite",
            "claim_timeout_winnings(address)": "infinite",
            "claim_win()": "infinite",
            "forfeit(address)": "infinite",
            "get_checked_ship()": "1099",
            "get_player_bid()": "1090",
            "get_players()": "1941",
            "get_ships_count()": "1133",
            "handle_timeout(address)": "infinite",
            "is_game_over()": "1093",
            "merge_bytes32(bytes32,bytes32)": "infinite",
            "store_bid()": "infinite",
            "store_board_commitment(bytes32)": "21987",
            "verify_opening(bytes,bytes32[],uint256,bytes32)": "infinite"
        },
        "internal": {
            "clear_state()": "infinite"
        }
    }
}