{
  "contractName": "Battleship",
  "abi": [
    {
      "anonymous": false,
      "inputs": [
        {
          "indexed": false,
          "internalType": "address",
          "name": "who",
          "type": "address"
        }
      ],
      "name": "OpponentLeft",
      "type": "event"
    },
    {
      "inputs": [],
      "name": "store_bid",
      "outputs": [],
      "stateMutability": "payable",
      "type": "function",
      "payable": true
    },
    {
      "inputs": [
        {
          "internalType": "bytes32",
          "name": "merkle_root",
          "type": "bytes32"
        }
      ],
      "name": "store_board_commitment",
      "outputs": [],
      "stateMutability": "nonpayable",
      "type": "function"
    },
    {
      "inputs": [
        {
          "internalType": "bytes",
          "name": "opening_nonce",
          "type": "bytes"
        },
        {
          "internalType": "bytes32[]",
          "name": "proof",
          "type": "bytes32[]"
        },
        {
          "internalType": "uint256",
          "name": "guess_leaf_index",
          "type": "uint256"
        },
        {
          "internalType": "address",
          "name": "owner",
          "type": "address"
        }
      ],
      "name": "check_one_ship",
      "outputs": [
        {
          "internalType": "bool",
          "name": "result",
          "type": "bool"
        }
      ],
      "stateMutability": "nonpayable",
      "type": "function"
    },
    {
      "inputs": [],
      "name": "claim_win",
      "outputs": [],
      "stateMutability": "nonpayable",
      "type": "function"
    },
    {
      "inputs": [
        {
          "internalType": "address payable",
          "name": "opponent",
          "type": "address"
        }
      ],
      "name": "forfeit",
      "outputs": [],
      "stateMutability": "nonpayable",
      "type": "function"
    },
    {
      "inputs": [
        {
          "internalType": "bytes",
          "name": "opening_nonce",
          "type": "bytes"
        },
        {
          "internalType": "bytes32[]",
          "name": "proof",
          "type": "bytes32[]"
        },
        {
          "internalType": "uint256",
          "name": "guess_leaf_index",
          "type": "uint256"
        },
        {
          "internalType": "address",
          "name": "owner",
          "type": "address"
        }
      ],
      "name": "accuse_cheating",
      "outputs": [
        {
          "internalType": "bool",
          "name": "result",
          "type": "bool"
        }
      ],
      "stateMutability": "nonpayable",
      "type": "function"
    },
    {
      "inputs": [
        {
          "internalType": "address",
          "name": "opponent",
          "type": "address"
        }
      ],
      "name": "claim_opponent_left",
      "outputs": [],
      "stateMutability": "nonpayable",
      "type": "function"
    },
    {
      "inputs": [
        {
          "internalType": "address payable",
          "name": "opponent",
          "type": "address"
        }
      ],
      "name": "handle_timeout",
      "outputs": [],
      "stateMutability": "nonpayable",
      "type": "function"
    },
    {
      "inputs": [
        {
          "internalType": "address",
          "name": "opponent",
          "type": "address"
        }
      ],
      "name": "claim_timeout_winnings",
      "outputs": [],
      "stateMutability": "nonpayable",
      "type": "function"
    },
    {
      "inputs": [],
      "name": "is_game_over",
      "outputs": [
        {
          "internalType": "bool",
          "name": "",
          "type": "bool"
        }
      ],
      "stateMutability": "view",
      "type": "function",
      "constant": true
    },
    {
      "inputs": [],
      "name": "get_players",
      "outputs": [
        {
          "internalType": "address",
          "name": "",
          "type": "address"
        },
        {
          "internalType": "address",
          "name": "",
          "type": "address"
        }
      ],
      "stateMutability": "view",
      "type": "function",
      "constant": true
    },
    {
      "inputs": [],
      "name": "get_checked_ship",
      "outputs": [
        {
          "internalType": "bool",
          "name": "",
          "type": "bool"
        }
      ],
      "stateMutability": "view",
      "type": "function",
      "constant": true
    },
    {
      "inputs": [],
      "name": "get_ships_count",
      "outputs": [
        {
          "internalType": "uint256",
          "name": "",
          "type": "uint256"
        }
      ],
      "stateMutability": "view",
      "type": "function",
      "constant": true
    },
    {
      "inputs": [],
      "name": "get_player_bid",
      "outputs": [
        {
          "internalType": "uint256",
          "name": "",
          "type": "uint256"
        }
      ],
      "stateMutability": "view",
      "type": "function",
      "constant": true
    },
    {
      "inputs": [
        {
          "internalType": "bytes32",
          "name": "a",
          "type": "bytes32"
        },
        {
          "internalType": "bytes32",
          "name": "b",
          "type": "bytes32"
        }
      ],
      "name": "merge_bytes32",
      "outputs": [
        {
          "internalType": "bytes",
          "name": "",
          "type": "bytes"
        }
      ],
      "stateMutability": "pure",
      "type": "function",
      "constant": true
    },
    {
      "inputs": [
        {
          "internalType": "bytes",
          "name": "opening_nonce",
          "type": "bytes"
        },
        {
          "internalType": "bytes32[]",
          "name": "proof",
          "type": "bytes32[]"
        },
        {
          "internalType": "uint256",
          "name": "guess_leaf_index",
          "type": "uint256"
        },
        {
          "internalType": "bytes32",
          "name": "commit",
          "type": "bytes32"
        }
      ],
      "name": "verify_opening",
      "outputs": [
        {
          "internalType": "bool",
          "name": "result",
          "type": "bool"
        }
      ],
      "stateMutability": "view",
      "type": "function",
      "constant": true
    }
  ],
  "bytecode": "0x608060405260008060006101000a81548173ffffffffffffffffffffffffffffffffffffffff021916908373ffffffffffffffffffffffffffffffffffffffff1602179055506000600160006101000a81548173ffffffffffffffffffffffffffffffffffffffff021916908373ffffffffffffffffffffffffffffffffffffffff1602179055506000600160146101000a81548160ff0219169083151502179055503480156100ae57600080fd5b5061263f806100be6000396000f3fe6080604052600436106100f35760003560e01c8063a2c66df11161008a578063deffa96711610059578063deffa967146107f5578063e7e4552c14610846578063f33bd194146108a4578063f66e88b1146108d1576100f3565b8063a2c66df1146105a0578063a88f4db5146105f1578063b62829b91461062c578063d55c91ec146107c8576100f3565b806350a04b45116100c657806350a04b45146102025780636cf399fa146103885780637601b31914610524578063a1fe39531461054f576100f3565b80630118046e146100f85780630868d16b1461012357806345f203b11461013a5780634ea0e9d414610144575b600080fd5b34801561010457600080fd5b5061010d610922565b6040518082815260200191505060405180910390f35b34801561012f57600080fd5b50610138610969565b005b610142610b6a565b005b34801561015057600080fd5b506101876004803603604081101561016757600080fd5b810190808035906020019092919080359060200190929190505050611141565b6040518080602001828103825283818151815260200191508051906020019080838360005b838110156101c75780820151818401526020810190506101ac565b50505050905090810190601f1680156101f45780820380516001836020036101000a031916815260200191505b509250505060405180910390f35b34801561020e57600080fd5b506103706004803603608081101561022557600080fd5b810190808035906020019064010000000081111561024257600080fd5b82018360208201111561025457600080fd5b8035906020019184600183028401116401000000008311171561027657600080fd5b91908080601f016020809104026020016040519081016040528093929190818152602001838380828437600081840152601f19601f820116905080830192505050505050509192919290803590602001906401000000008111156102d957600080fd5b8201836020820111156102eb57600080fd5b8035906020019184602083028401116401000000008311171561030d57600080fd5b919080806020026020016040519081016040528093929190818152602001838360200280828437600081840152601f19601f82011690508083019250505050505050919291929080359060200190929190803590602001909291905050506111a8565b60405180821515815260200191505060405180910390f35b34801561039457600080fd5b5061050c600480360360808110156103ab57600080fd5b81019080803590602001906401000000008111156103c857600080fd5b8201836020820111156103da57600080fd5b803590602001918460018302840111640100000000831117156103fc57600080fd5b91908080601f016020809104026020016040519081016040528093929190818152602001838380828437600081840152601f19601f8201169050808301925050505050505091929192908035906020019064010000000081111561045f57600080fd5b82018360208201111561047157600080fd5b8035906020019184602083028401116401000000008311171561049357600080fd5b919080806020026020016040519081016040528093929190818152602001838360200280828437600081840152601f19601f82011690508083019250505050505050919291929080359060200190929190803573ffffffffffffffffffffffffffffffffffffffff1690602001909291905050506112ca565b60405180821515815260200191505060405180910390f35b34801561053057600080fd5b50610539611564565b6040518082815260200191505060405180910390f35b34801561055b57600080fd5b5061059e6004803603602081101561057257600080fd5b81019080803573ffffffffffffffffffffffffffffffffffffffff1690602001909291905050506115ab565b005b3480156105ac57600080fd5b506105ef600480360360208110156105c357600080fd5b81019080803573ffffffffffffffffffffffffffffffffffffffff16906020019092919050505061180e565b005b3480156105fd57600080fd5b5061062a6004803603602081101561061457600080fd5b8101908080359060200190929190505050611973565b005b34801561063857600080fd5b506107b06004803603608081101561064f57600080fd5b810190808035906020019064010000000081111561066c57600080fd5b82018360208201111561067e57600080fd5b803590602001918460018302840111640100000000831117156106a057600080fd5b91908080601f016020809104026020016040519081016040528093929190818152602001838380828437600081840152601f19601f8201169050808301925050505050505091929192908035906020019064010000000081111561070357600080fd5b82018360208201111561071557600080fd5b8035906020019184602083028401116401000000008311171561073757600080fd5b919080806020026020016040519081016040528093929190818152602001838360200280828437600081840152601f19601f82011690508083019250505050505050919291929080359060200190929190803573ffffffffffffffffffffffffffffffffffffffff169060200190929190505050611ad3565b60405180821515815260200191505060405180910390f35b3480156107d457600080fd5b506107dd611c57565b60405180821515815260200191505060405180910390f35b34801561080157600080fd5b506108446004803603602081101561081857600080fd5b81019080803573ffffffffffffffffffffffffffffffffffffffff169060200190929190505050611c6e565b005b34801561085257600080fd5b5061085b611e3d565b604051808373ffffffffffffffffffffffffffffffffffffffff1681526020018273ffffffffffffffffffffffffffffffffffffffff1681526020019250505060405180910390f35b3480156108b057600080fd5b506108b9611e8c565b60405180821515815260200191505060405180910390f35b3480156108dd57600080fd5b50610920600480360360208110156108f457600080fd5b81019080803573ffffffffffffffffffffffffffffffffffffffff169060200190929190505050611ea3565b005b6000600560003373ffffffffffffffffffffffffffffffffffffffff1673ffffffffffffffffffffffffffffffffffffffff16815260200190815260200160002054905090565b600a600860003373ffffffffffffffffffffffffffffffffffffffff1673ffffffffffffffffffffffffffffffffffffffff168152602001908152602001600020541480156109f75750600a600760003373ffffffffffffffffffffffffffffffffffffffff1673ffffffffffffffffffffffffffffffffffffffff16815260200190815260200160002054145b610a69576040517f08c379a00000000000000000000000000000000000000000000000000000000081526004018080602001828103825260208152602001807f6e6f7420656e6f756768742068697473206f7220706c6163656420736869707381525060200191505060405180910390fd5b60003373ffffffffffffffffffffffffffffffffffffffff164760405180600001905060006040518083038185875af1925050503d8060008114610ac9576040519150601f19603f3d011682016040523d82523d6000602084013e610ace565b606091505b5050905080610b45576040517f08c379a00000000000000000000000000000000000000000000000000000000081526004018080602001828103825260148152602001807f4661696c656420746f2073656e6420457468657200000000000000000000000081525060200191505060405180910390fd5b60018060146101000a81548160ff021916908315150217905550610b6761216d565b50565b600073ffffffffffffffffffffffffffffffffffffffff1660008054906101000a900473ffffffffffffffffffffffffffffffffffffffff1673ffffffffffffffffffffffffffffffffffffffff161415610c6957336000806101000a81548173ffffffffffffffffffffffffffffffffffffffff021916908373ffffffffffffffffffffffffffffffffffffffff16021790555034600560008060009054906101000a900473ffffffffffffffffffffffffffffffffffffffff1673ffffffffffffffffffffffffffffffffffffffff1673ffffffffffffffffffffffffffffffffffffffff16815260200190815260200160002081905550610d69565b600073ffffffffffffffffffffffffffffffffffffffff16600160009054906101000a900473ffffffffffffffffffffffffffffffffffffffff1673ffffffffffffffffffffffffffffffffffffffff161415610d685733600160006101000a81548173ffffffffffffffffffffffffffffffffffffffff021916908373ffffffffffffffffffffffffffffffffffffffff1602179055503460056000600160009054906101000a900473ffffffffffffffffffffffffffffffffffffffff1673ffffffffffffffffffffffffffffffffffffffff1673ffffffffffffffffffffffffffffffffffffffff168152602001908152602001600020819055505b5b600073ffffffffffffffffffffffffffffffffffffffff1660008054906101000a900473ffffffffffffffffffffffffffffffffffffffff1673ffffffffffffffffffffffffffffffffffffffff1614158015610e155750600073ffffffffffffffffffffffffffffffffffffffff16600160009054906101000a900473ffffffffffffffffffffffffffffffffffffffff1673ffffffffffffffffffffffffffffffffffffffff1614155b1561113f57600560008060009054906101000a900473ffffffffffffffffffffffffffffffffffffffff1673ffffffffffffffffffffffffffffffffffffffff1673ffffffffffffffffffffffffffffffffffffffff1681526020019081526020016000205460056000600160009054906101000a900473ffffffffffffffffffffffffffffffffffffffff1673ffffffffffffffffffffffffffffffffffffffff1673ffffffffffffffffffffffffffffffffffffffff168152602001908152602001600020541015610f51576040517f08c379a000000000000000000000000000000000000000000000000000000000815260040180806020018281038252601e8152602001807f506c61796572312062696473206d6f7265207468616e20506c6179657232000081525060200191505060405180910390fd5b6000600560008060009054906101000a900473ffffffffffffffffffffffffffffffffffffffff1673ffffffffffffffffffffffffffffffffffffffff1673ffffffffffffffffffffffffffffffffffffffff1681526020019081526020016000205460056000600160009054906101000a900473ffffffffffffffffffffffffffffffffffffffff1673ffffffffffffffffffffffffffffffffffffffff1673ffffffffffffffffffffffffffffffffffffffff168152602001908152602001600020540390506000811115611122576000600160009054906101000a900473ffffffffffffffffffffffffffffffffffffffff1673ffffffffffffffffffffffffffffffffffffffff164760405180600001905060006040518083038185875af1925050503d80600081146110a4576040519150601f19603f3d011682016040523d82523d6000602084013e6110a9565b606091505b5050905080611120576040517f08c379a00000000000000000000000000000000000000000000000000000000081526004018080602001828103825260148152602001807f4661696c656420746f2073656e6420457468657200000000000000000000000081525060200191505060405180910390fd5b505b6000600160146101000a81548160ff021916908315150217905550505b565b606080604067ffffffffffffffff8111801561115c57600080fd5b506040519080825280601f01601f19166020018201604052801561118f5781602001600182028036833780820191505090505b5090508360208201528260408201528091505092915050565b6000808580519060200120905060008490506000805b87518210156112b95760008160020a84816111d557fe5b0490506000600282816111e457fe5b069050600060018460020a60018660020a6006800263ffffffff1601038161120857fe5b0403905060006002600184018161121b57fe5b0683850301905084806001019550508181111561123b57505050506111be565b60006002848161124757fe5b0614156112815761126b888d888151811061125e57fe5b6020026020010151611141565b80519060200120975085806001019650506112b0565b61129e8c878151811061129057fe5b602002602001015189611141565b80519060200120975085806001019650505b505050506111be565b858414945050505050949350505050565b60008060009054906101000a900473ffffffffffffffffffffffffffffffffffffffff1673ffffffffffffffffffffffffffffffffffffffff163373ffffffffffffffffffffffffffffffffffffffff1614806113745750600160009054906101000a900473ffffffffffffffffffffffffffffffffffffffff1673ffffffffffffffffffffffffffffffffffffffff163373ffffffffffffffffffffffffffffffffffffffff16145b8015611423575060008054906101000a900473ffffffffffffffffffffffffffffffffffffffff1673ffffffffffffffffffffffffffffffffffffffff168273ffffffffffffffffffffffffffffffffffffffff1614806114225750600160009054906101000a900473ffffffffffffffffffffffffffffffffffffffff1673ffffffffffffffffffffffffffffffffffffffff168273ffffffffffffffffffffffffffffffffffffffff16145b5b61142c57600080fd5b611477858585600660008773ffffffffffffffffffffffffffffffffffffffff1673ffffffffffffffffffffffffffffffffffffffff168152602001908152602001600020546111a8565b90508061155c5760003373ffffffffffffffffffffffffffffffffffffffff164760405180600001905060006040518083038185875af1925050503d80600081146114de576040519150601f19603f3d011682016040523d82523d6000602084013e6114e3565b606091505b505090508061155a576040517f08c379a00000000000000000000000000000000000000000000000000000000081526004018080602001828103825260148152602001807f4661696c656420746f2073656e6420457468657200000000000000000000000081525060200191505060405180910390fd5b505b949350505050565b6000600860003373ffffffffffffffffffffffffffffffffffffffff1673ffffffffffffffffffffffffffffffffffffffff16815260200190815260200160002054905090565b600960008273ffffffffffffffffffffffffffffffffffffffff1673ffffffffffffffffffffffffffffffffffffffff16815260200190815260200160002060009054906101000a900460ff1615801561164f5750600960003373ffffffffffffffffffffffffffffffffffffffff1673ffffffffffffffffffffffffffffffffffffffff16815260200190815260200160002060009054906101000a900460ff16155b80156116fe575060008054906101000a900473ffffffffffffffffffffffffffffffffffffffff1673ffffffffffffffffffffffffffffffffffffffff168173ffffffffffffffffffffffffffffffffffffffff1614806116fd5750600160009054906101000a900473ffffffffffffffffffffffffffffffffffffffff1673ffffffffffffffffffffffffffffffffffffffff168173ffffffffffffffffffffffffffffffffffffffff16145b5b611753576040517f08c379a000000000000000000000000000000000000000000000000000000000815260040180806020018281038252603a8152602001806125ad603a913960400191505060405180910390fd5b42600281905550603c600254016003819055506001600960008373ffffffffffffffffffffffffffffffffffffffff1673ffffffffffffffffffffffffffffffffffffffff16815260200190815260200160002060006101000a81548160ff0219169083151502179055507f289977c9d690ef7d3678a642a80c1b9e0a9c0b391bdf7061c4a3adf8da5a37e181604051808273ffffffffffffffffffffffffffffffffffffffff16815260200191505060405180910390a150565b60035442111580156118c3575060008054906101000a900473ffffffffffffffffffffffffffffffffffffffff1673ffffffffffffffffffffffffffffffffffffffff163373ffffffffffffffffffffffffffffffffffffffff1614806118c25750600160009054906101000a900473ffffffffffffffffffffffffffffffffffffffff1673ffffffffffffffffffffffffffffffffffffffff163373ffffffffffffffffffffffffffffffffffffffff16145b5b611918576040517f08c379a00000000000000000000000000000000000000000000000000000000081526004018080602001828103825260238152602001806125e76023913960400191505060405180910390fd5b6000600960003373ffffffffffffffffffffffffffffffffffffffff1673ffffffffffffffffffffffffffffffffffffffff16815260200190815260200160002060006101000a81548160ff02191690831515021790555050565b60008054906101000a900473ffffffffffffffffffffffffffffffffffffffff1673ffffffffffffffffffffffffffffffffffffffff163373ffffffffffffffffffffffffffffffffffffffff161480611a1a5750600160009054906101000a900473ffffffffffffffffffffffffffffffffffffffff1673ffffffffffffffffffffffffffffffffffffffff163373ffffffffffffffffffffffffffffffffffffffff16145b611a8c576040517f08c379a00000000000000000000000000000000000000000000000000000000081526004018080602001828103825260108152602001807f6e6f742076616c6964206164726573730000000000000000000000000000000081525060200191505060405180910390fd5b80600660003373ffffffffffffffffffffffffffffffffffffffff1673ffffffffffffffffffffffffffffffffffffffff1681526020019081526020016000208190555050565b6000611b20858585600660008773ffffffffffffffffffffffffffffffffffffffff1673ffffffffffffffffffffffffffffffffffffffff168152602001908152602001600020546111a8565b600460006101000a81548160ff0219169083151502179055503373ffffffffffffffffffffffffffffffffffffffff168273ffffffffffffffffffffffffffffffffffffffff16148015611b805750600460009054906101000a900460ff165b15611bd8576001600860003373ffffffffffffffffffffffffffffffffffffffff1673ffffffffffffffffffffffffffffffffffffffff16815260200190815260200160002060008282540192505081905550611c3d565b600460009054906101000a900460ff1615611c3c576001600760003373ffffffffffffffffffffffffffffffffffffffff1673ffffffffffffffffffffffffffffffffffffffff168152602001908152602001600020600082825401925050819055505b5b600460009054906101000a900460ff169050949350505050565b6000600460009054906101000a900460ff16905090565b600960008273ffffffffffffffffffffffffffffffffffffffff1673ffffffffffffffffffffffffffffffffffffffff16815260200190815260200160002060009054906101000a900460ff168015611cc957506003544210155b611d3b576040517f08c379a00000000000000000000000000000000000000000000000000000000081526004018080602001828103825260158152602001807f74696d657220686173206e6f742072756e206f7574000000000000000000000081525060200191505060405180910390fd5b60003373ffffffffffffffffffffffffffffffffffffffff164760405180600001905060006040518083038185875af1925050503d8060008114611d9b576040519150601f19603f3d011682016040523d82523d6000602084013e611da0565b606091505b5050905080611e17576040517f08c379a00000000000000000000000000000000000000000000000000000000081526004018080602001828103825260148152602001807f4661696c656420746f2073656e6420457468657200000000000000000000000081525060200191505060405180910390fd5b60018060146101000a81548160ff021916908315150217905550611e3961216d565b5050565b60008060008054906101000a900473ffffffffffffffffffffffffffffffffffffffff16600160009054906101000a900473ffffffffffffffffffffffffffffffffffffffff16915091509091565b6000600160149054906101000a900460ff16905090565b60008054906101000a900473ffffffffffffffffffffffffffffffffffffffff1673ffffffffffffffffffffffffffffffffffffffff163373ffffffffffffffffffffffffffffffffffffffff161480611f4a5750600160009054906101000a900473ffffffffffffffffffffffffffffffffffffffff1673ffffffffffffffffffffffffffffffffffffffff163373ffffffffffffffffffffffffffffffffffffffff16145b8015611ff9575060008054906101000a900473ffffffffffffffffffffffffffffffffffffffff1673ffffffffffffffffffffffffffffffffffffffff168173ffffffffffffffffffffffffffffffffffffffff161480611ff85750600160009054906101000a900473ffffffffffffffffffffffffffffffffffffffff1673ffffffffffffffffffffffffffffffffffffffff168173ffffffffffffffffffffffffffffffffffffffff16145b5b61206b576040517f08c379a000000000000000000000000000000000000000000000000000000000815260040180806020018281038252600f8152602001807f696e76616c69642061646472657373000000000000000000000000000000000081525060200191505060405180910390fd5b60008173ffffffffffffffffffffffffffffffffffffffff164760405180600001905060006040518083038185875af1925050503d80600081146120cb576040519150601f19603f3d011682016040523d82523d6000602084013e6120d0565b606091505b5050905080612147576040517f08c379a00000000000000000000000000000000000000000000000000000000081526004018080602001828103825260148152602001807f4661696c656420746f2073656e6420457468657200000000000000000000000081525060200191505060405180910390fd5b60018060146101000a81548160ff02191690831515021790555061216961216d565b5050565b600160149054906101000a900460ff166121ef576040517f08c379a00000000000000000000000000000000000000000000000000000000081526004018080602001828103825260188152602001807f67616d65206973207374696c6c20696e2073657373696f6e000000000000000081525060200191505060405180910390fd5b6000600560008060009054906101000a900473ffffffffffffffffffffffffffffffffffffffff1673ffffffffffffffffffffffffffffffffffffffff1673ffffffffffffffffffffffffffffffffffffffff16815260200190815260200160002081905550600060056000600160009054906101000a900473ffffffffffffffffffffffffffffffffffffffff1673ffffffffffffffffffffffffffffffffffffffff1673ffffffffffffffffffffffffffffffffffffffff168152602001908152602001600020819055506000600760008060009054906101000a900473ffffffffffffffffffffffffffffffffffffffff1673ffffffffffffffffffffffffffffffffffffffff1673ffffffffffffffffffffffffffffffffffffffff16815260200190815260200160002081905550600060076000600160009054906101000a900473ffffffffffffffffffffffffffffffffffffffff1673ffffffffffffffffffffffffffffffffffffffff1673ffffffffffffffffffffffffffffffffffffffff168152602001908152602001600020819055506000600860008060009054906101000a900473ffffffffffffffffffffffffffffffffffffffff1673ffffffffffffffffffffffffffffffffffffffff1673ffffffffffffffffffffffffffffffffffffffff16815260200190815260200160002081905550600060086000600160009054906101000a900473ffffffffffffffffffffffffffffffffffffffff1673ffffffffffffffffffffffffffffffffffffffff1673ffffffffffffffffffffffffffffffffffffffff168152602001908152602001600020819055506000801b600660008060009054906101000a900473ffffffffffffffffffffffffffffffffffffffff1673ffffffffffffffffffffffffffffffffffffffff1673ffffffffffffffffffffffffffffffffffffffff168152602001908152602001600020819055506000801b60066000600160009054906101000a900473ffffffffffffffffffffffffffffffffffffffff1673ffffffffffffffffffffffffffffffffffffffff1673ffffffffffffffffffffffffffffffffffffffff1681526020019081526020016000208190555060008060006101000a81548173ffffffffffffffffffffffffffffffffffffffff021916908373ffffffffffffffffffffffffffffffffffffffff1602179055506000600160006101000a81548173ffffffffffffffffffffffffffffffffffffffff021916908373ffffffffffffffffffffffffffffffffffffffff16021790555056fe696e76616c69642061646472657373206f7220796f75206861766520746f2068616e646c6520612074696d656f75742061636375736174696f6e74696d65206861732072756e206f7574206f7220696e76616c69642061646472657373a26469706673582212201ba0143185ab219af2f7be08a4d96b8afe8a235aa2382b61a128b4ab05f4cf5564736f6c634300060c0033",
  "immutableReferences": {},
  "source": "pragma solidity >=0.4.22 <0.7.0;\n\n//import \"https://github.com/OpenZeppelin/openzeppelin-contracts/blob/release-v3.0.0/contracts/cryptography/ECDSA.sol\";\nimport \"@openzeppelin/contracts/cryptography/ECDSA.sol\";\n\ncontract Battleship {\n    using ECDSA for bytes32;\n    uint32 constant BOARD_LEN = 6;\n    // Declare state variables here.\n    // Consider keeping state for:\n    // - player addresses\n    // - whether the game is over\n    // - board commitments\n    // - whether a player has proven 10 winning moves\n    // - whether a player has proven their own board had 10 ships\n    address payable player1 = address(0);\n    address payable player2 = address(0);\n    bool gameOver = false;\n    uint timerStart;\n    uint timerEnd;\n    bool checked_ship;\n\n    mapping (address => uint) internal playersBids;\n    mapping (address => bytes32) internal boardCommitments;\n    mapping (address => uint) internal provedHits;\n    mapping (address => uint) internal provedShips;\n    mapping (address => bool) internal playerLeft;\n\n    /*struct State{\n        address payable player1;\n        address payable player2;\n        bool gameOver;\n        uint timerStart;\n        uint timerEnd;\n        bool left;\n    }\n    State internal actualState;\n    State[] internal states;*/\n    // Declare events here.\n    // Consider triggering an event upon accusing another player of having left.\n    event OpponentLeft(address who);\n    // Store the bids of each player\n    // Start the game when both bids are received\n    // The first player to call the function determines the bid amount.\n    // Refund excess bids to the second player if they bid too much.\n    function store_bid() public payable{\n        if (player1 == address(0)){\n            player1 = msg.sender;\n            playersBids[player1] = msg.value;\n        }\n        else if(player2 == address(0)){\n            player2 = msg.sender;\n            playersBids[player2] = msg.value;\n        }\n        if(player1 != address(0) && player2 != address(0)){\n            require(playersBids[player2] >= playersBids[player1], \"Player1 bids more than Player2\");\n            uint valueRefund = playersBids[player2] - playersBids[player1];\n            if (valueRefund > 0){\n                (bool sent, /*bytes memory data*/) = player2.call{value: address(this).balance}(\"\");\n                require(sent, \"Failed to send Ether\");\n            }\n            gameOver = false;\n        }\n    }\n\n    // Clear state - make sure to set that the game is not in session\n    function clear_state() internal {\n        require(gameOver, \"game is still in session\");\n        playersBids[player1] = 0;\n        playersBids[player2] = 0;\n        provedHits[player1] = 0;\n        provedHits[player2] = 0;\n        provedShips[player1] = 0;\n        provedShips[player2] = 0;\n        boardCommitments[player1] = 0;\n        boardCommitments[player2] = 0;\n        player1 = address(0);\n        player2 = address(0);\n    }\n\n    // Store the initial board commitments of each player\n    // Note that merkle_root is the hash of the topmost value of the merkle tree\n    function store_board_commitment(bytes32 merkle_root) public {\n        require(msg.sender == player1 || msg.sender == player2, \"not valid adress\");\n        boardCommitments[msg.sender] = merkle_root;\n    }\n\n    // Verify the placement of one ship on a board\n    // opening_nonce - corresponds to web3.utils.fromAscii(JSON.stringify(opening) + JSON.stringify(nonce)) in JS\n    // proof - a list of sha256 hashes you can get from get_proof_for_board_guess\n    // guess_leaf_index - the index of the guess as a leaf in the merkle tree\n    // owner - the address of the owner of the board on which this ship lives\n    function check_one_ship(bytes memory opening_nonce, bytes32[] memory proof,\n        uint256 guess_leaf_index, address owner) public returns (bool result) {\n        checked_ship =  verify_opening(opening_nonce, proof, guess_leaf_index, boardCommitments[owner]);\n        if(owner == msg.sender && checked_ship){\n            provedShips[msg.sender] += 1;\n        }\n        else if(checked_ship){\n            provedHits[msg.sender] += 1;\n        }\n        result = checked_ship;\n        return result;\n    }\n\n    // Claim you won the game\n    // If you have checked 10 winning moves (hits) AND you have checked\n    // 10 of your own ship placements with the contract, then this function\n    // should transfer winning funds to you and end the game.\n    function claim_win() public {\n        require(provedShips[msg.sender] == 10 && provedHits[msg.sender] == 10, \"not enought hits or placed ships\");\n        (bool sent, /*bytes memory data*/) = msg.sender.call{value: address(this).balance}(\"\");\n        require(sent, \"Failed to send Ether\");\n        gameOver = true;\n        clear_state();\n    }\n\n    // Forfeit the game\n    // Regardless of cheating, board state, or any other conditions, this function\n    // results in all funds being sent to the opponent and the game being over.\n    function forfeit(address payable opponent) public {\n        require((msg.sender == player1 || msg.sender == player2) && (opponent == player1 || opponent == player2), \"invalid address\");\n        (bool sent, /*bytes memory data*/) = opponent.call{value: address(this).balance}(\"\");\n        require(sent, \"Failed to send Ether\");\n        gameOver = true;\n        clear_state();\n    }\n\n    // Claim the opponent cheated - if true, you win.\n    // opening_nonce - corresponds to web3.utils.fromAscii(JSON.stringify(opening) + JSON.stringify(nonce)) in JS\n    // proof - a list of sha256 hashes you can get from get_proof_for_board_guess (this is what the sender believes to be a lie)\n    // guess_leaf_index - the index of the guess as a leaf in the merkle tree\n    // owner - the address of the owner of the board on which this ship lives\n    function accuse_cheating(bytes memory opening_nonce, bytes32[] memory proof,\n        uint256 guess_leaf_index, address owner) public returns (bool result) {\n        require((msg.sender == player1 || msg.sender == player2) && (owner == player1 || owner == player2));\n        result = verify_opening(opening_nonce, proof, guess_leaf_index, boardCommitments[owner]);\n        if (!result){\n            (bool sent, /*bytes memory data*/) = msg.sender.call{value: address(this).balance}(\"\");\n            require(sent, \"Failed to send Ether\");\n        }\n        \n        return result;\n    }\n\n    // Claim the opponent of taking too long/leaving\n    // Trigger an event that both players should listen for.\n    function claim_opponent_left(address opponent) public {\n        require(!playerLeft[opponent] && !playerLeft[msg.sender] && (opponent == player1 || opponent == player2), \"invalid address or you have to handle a timeout accusation\");\n        timerStart = now;\n        timerEnd = timerStart + 60;\n        playerLeft[opponent] = true;\n        emit OpponentLeft(opponent);\n    }\n\n    // Handle a timeout accusation - msg.sender is the accused party.\n    // If less than 1 minute has passed, then set state appropriately to prevent distribution of winnings.\n    // Otherwise, do nothing.\n    function handle_timeout(address payable opponent) public {\n        require(now <= timerEnd && (msg.sender == player1 || msg.sender == player2),\"time has run out or invalid address\");\n        playerLeft[msg.sender] = false;\n    }\n\n    // Claim winnings if opponent took too long/stopped responding after claim_opponent_left\n    // The player MUST claim winnings. The opponent failing to handle the timeout on their end should not\n    // result in the game being over. If the timer has not run out, do nothing.\n    function claim_timeout_winnings(address opponent) public {\n        require(playerLeft[opponent] && now >= timerEnd, \"timer has not run out\");\n        (bool sent, /*bytes memory data*/) = msg.sender.call{value: address(this).balance}(\"\");\n        require(sent, \"Failed to send Ether\");\n        gameOver = true;\n        clear_state();\n    }\n\n    // Check if game is over\n    // Hint - use a state variable for this, so you can call it from JS.\n    // Note - you cannot use the return values of functions that change state in JS.\n    function is_game_over() public view returns (bool) {\n        return gameOver;\n    }\n\n    function get_players() public view returns (address, address){\n        return (player1, player2);\n    }\n\n    function get_checked_ship() public view returns (bool){\n        return checked_ship;\n    }\n\n    function get_ships_count() public view returns (uint){\n        return provedShips[msg.sender];\n    }\n\n    function get_player_bid() public view returns (uint){\n        return playersBids[msg.sender];\n    }\n\n    /**** Helper Functions below this point. Do not modify. ****/\n    /***********************************************************/\n\n    function merge_bytes32(bytes32 a, bytes32 b) pure public returns (bytes memory) {\n        bytes memory result = new bytes(64);\n        assembly {\n            mstore(add(result, 32), a)\n            mstore(add(result, 64), b)\n        }\n        return result;\n    }\n\n    // Verify the proof of a single spot on a single board\n    // \\args:\n    //      opening_nonce - corresponds to web3.utils.fromAscii(JSON.stringify(opening) + JSON.stringify(nonce)));\n    //      proof - list of sha256 hashes that correspond to output from get_proof_for_board_guess()\n    //      guess - [i, j] - guess that opening corresponds to\n    //      commit - merkle root of the board\n    function verify_opening(bytes memory opening_nonce, bytes32[] memory proof, uint guess_leaf_index, bytes32 commit) public view returns (bool result) {\n        bytes32 curr_commit = keccak256(opening_nonce); // see if this changes hash\n        uint index_in_leaves = guess_leaf_index;\n\n        uint curr_proof_index = 0;\n        uint i = 0;\n\n        while (curr_proof_index < proof.length) {\n            // index of which group the guess is in for the current level of Merkle tree\n            // (equivalent to index of parent in next level of Merkle tree)\n            uint group_in_level_of_merkle = index_in_leaves / (2**i);\n            // index in Merkle group in (0, 1)\n            uint index_in_group = group_in_level_of_merkle % 2;\n            // max node index for currrent Merkle level\n            uint max_node_index = ((BOARD_LEN * BOARD_LEN + (2**i) - 1) / (2**i)) - 1;\n            // index of sibling of curr_commit\n            uint sibling = group_in_level_of_merkle - index_in_group + (index_in_group + 1) % 2;\n            i++;\n            if (sibling > max_node_index) continue;\n            if (index_in_group % 2 == 0) {\n                curr_commit = keccak256(merge_bytes32(curr_commit, proof[curr_proof_index]));\n                curr_proof_index++;\n            } else {\n                curr_commit = keccak256(merge_bytes32(proof[curr_proof_index], curr_commit));\n                curr_proof_index++;\n            }\n        }\n        return (curr_commit == commit);\n\n    }\n}\n",
  "sourcePath": "/Users/pc/Documents/FIIT/DMBLOCK/zadanie_2/Zadanie_2/kody/contracts/contract_starter.sol",
  "compiler": {
    "name": "solc",
    "version": "0.6.12+commit.27d51765.Emscripten.clang"
  },
  "schemaVersion": "3.4.4",
  "updatedAt": "2022-04-13T17:45:08.892Z",
  "networkType": "ethereum",
  "devdoc": {
    "kind": "dev",
    "methods": {},
    "version": 1
  },
  "userdoc": {
    "kind": "user",
    "methods": {},
    "version": 1
  }
}